:020000040800F2
:1000000060070020750200087F1F0008A11E00087D
:100010007D1F00089F0A00087922000800000000E8
:10002000000000000000000000000000831F000826
:10003000AD0A000800000000811F0008851F0008AD
:100040008F0200088F0200088F0200088F0200084C
:100050008F0200088F0200088F0200088F0200083C
:100060008F0200088F0200088F0200088F0200082C
:100070008F0200088F0200088F0200088F0200081C
:100080008F0200088F0200088F0200088F0200080C
:10009000A10A00088F0200088F0200088F020008E2
:1000A0008F0200088F0200088F0200088F020008EC
:1000B0008F0200088F0200088F0200088F020008DC
:1000C0008F0200088F0200088F0200088F020008CC
:1000D0008F0200088F0200086D2200088F020008BE
:1000E000AF0A00088F0200088F0200088F02000884
:1000F0008F0200088F0200088F0200088F0200089C
:100100008F0200088F0200088F0200088F0200088B
:100110008F0200088F0200088F0200088F0200087B
:100120008F0200088F0200088F0200088F0200086B
:100130008F02000800000000000000008F0200088D
:100140008F0200088F0200088F0200088F0200084B
:100150008F0200088F0200088F0200088F0200083B
:100160008F0200088F0200088F0200088F0200082B
:100170008F0200088F0200088F02000800000000B4
:10018000000000008F0200080000000000000000D6
:100190008F02000800000000000000008F0200082D
:1001A0000000000000000000000000008F020008B6
:1001B0008F0200088F0200088F0200088F020008DB
:1001C0008F02000800F002F800F045F80AA090E85D
:1001D000000C82448344AAF10107DA4501D100F002
:1001E0003AF8AFF2090EBAE80F0013F0010F18BF8A
:1001F000FB1A43F00103184754210000742100004A
:10020000103A24BF78C878C1FAD8520724BF30C842
:1002100030C144BF04680C60704700000023002414
:1002200000250026103A28BF78C1FBD8520728BF06
:1002300030C148BF0B6070471FB502F075F800F081
:10024000E3FB04000020002102F058F8401C60602D
:100250001FBD10B510BD00F09BFB1146FFF7ECFF72
:1002600002F01CF800F0C2FB03B4FFF7F2FF03BC7E
:1002700000F0CEFB0948804709480047FEE7FEE74B
:10028000FEE7FEE7FEE7FEE7FEE7FEE7FEE7FEE746
:1002900004480549054A064B70470000292000081C
:1002A000C5010008600100206007002060030020F5
:1002B0006003002053EA020C00F069802DE9F04B46
:1002C0004FF00006002B1FBFB3FA83F503FA05F4C5
:1002D00024FA05F65E4012BF1643B2FA82F502FA1E
:1002E00005F4C5F120051EBF22FA05FC44EA0C0402
:1002F000203556EA044C4FEA144418BF641C4FF0F2
:1003000000084FF00009904271EB030C39D300292B
:1003100019BFB1FA81F701FA07F6B0FA80F700FACF
:1003200007F6C7F120071EBF20FA07FC46EA0C06B5
:100330002037B6FBF4FCA7EB0507103F07F01F0BB7
:10034000CBF120060CFA0BFB2CFA06F644BFB346A1
:100350000026202FA4BF5E464FF0000B5BEA060C80
:1003600008BF4FF0010B19EB0B09ABFB027C48EB0C
:100370000608C01B06FB02CC0BFB03CC71EB0C0187
:10038000C1E70B46024641464846BDE8F08B13B52F
:100390004FF000004FF00001AFF30080BDE81C40BB
:1003A000704700000FB400B58DB010A909900091FE
:1003B0000B904FF0FF300A9000200C9006487844D4
:1003C0000690064878446A4607900F9909A800F0FD
:1003D000EBF80DB05DF814FB070200001F020000EF
:1003E0002DE9FF5F1D464FF0FF3B91464FF000089F
:1003F0005F46D5E90146A96901987F1C8847296AAB
:10040000824688470028F6D1BAF1FF3F0CD0002E73
:1004100024F4C06419DD600614D5BAF12B0F09D09D
:10042000BAF12D0F0ED103E0584604B0BDE8F09F9D
:1004300044F48064A96901987F1C8847761E82462F
:10044000002E02DDBAF1300F03D0B9F1000F26D033
:1004500032E0A969761E01987F1C44F40074884735
:10046000002E824605DDBAF1780F06D0BAF1580F9A
:1004700003D0B9F1000F10D01EE0B9F1000F02D087
:10048000B9F1100F18D1A969761E01987F1C24F4C8
:10049000007488478246102002E0082000E00A200D
:1004A000814609E0A96908FB0908761E01987F1CAE
:1004B00044F4007488478246002E05DD49465046C4
:1004C00000F05EF80028EDDAE96901988847A00598
:1004D00002D46FF00100A8E7E00725D1600613D52C
:1004E000600502D5C8F1000000E0404629680A1DF9
:1004F0002A600968220501D5087015E0220701D598
:10050000088011E008600FE02868011D296000687C
:10051000210502D580F8008006E0210702D5A0F869
:10052000008001E0C0F8008038467EE74FF000020E
:1005300000B5134694469646203922BFA0E80C50D9
:10054000A0E80C50B1F12001BFF4F7AF090728BFB4
:10055000A0E80C5048BF0CC05DF804EB890028BF30
:1005600040F8042B08BF704748BF20F8022B11F059
:10057000804F18BF00F8012B7047704770477047D5
:100580003A2800D2303820F02002412A01D3A2F1CB
:100590003700884201D34FF0FF30704702681144A2
:1005A0001378016018467047D1600549794451615C
:1005B00004497944116200211161114600F02EB8FE
:1005C000EDFFFFFF53000000426842B1016811F8DF
:1005D000013B23B1521EC0E90012184670470121A9
:1005E000C160881E704742685AB1C368016843B948
:1005F00083688B4205D0491E521CC0E900120020BE
:1006000070474FF0FF30704710B5044600F0E6F930
:100610000068005D00F0010010BD00002DE9F34FFF
:100620004FF0000A0C4656468DB001200C9001F1A7
:100630000C000B9062690B9801219047051E2DD08C
:10064000252D2CD0216A8847C0B162690B98012101
:100650009047216A88470028F7D16269411E0B98AC
:10066000904700E0761CA1690D988847216A884769
:100670000028F7D1E1690D988847DBE7A1690D985B
:100680008847A842074601D1761CD3E7E1690D9857
:1006900088477F1C02D1BAF1000F6FD06BE162690D
:1006A0000B9800273D46394690472A2804D16269B5
:1006B0000B98012190470125DFF8D08262690B98E1
:1006C00001219047A0F130010A290AD24745E5DC13
:1006D00007EB870100EB4107303FDFD445F0100501
:1006E000ECE7E90601D46FF000476C280AD04C28EB
:1006F00014D0682815D06A280DD074281CD07A2808
:100700001AD01DE062690B98012190476C2802D035
:1007100045F0040514E045F002050DE045F0200524
:100720000AE062690B9801219047682802D045F0E1
:10073000080505E045F4006562690B9801219047C2
:10074000C4E9015765283DD019DC58287AD00CDC63
:10075000452837D004DC252826D041289ED131E019
:1007600046282FD0472899D12CE05B2877D06128E4
:1007700028D063287CD0642823D15AE0F6E06F2883
:1007800048D008DC66281DD067281BD0692821D0F6
:100790006E2816D127E0702845D0732868D07528B8
:1007A00047D078280DD14DE0A1690D9888472528BC
:1007B00005463FF469AFE1690D9888476D1C3FF429
:1007C0006AAFD8E00D9923466A466FF00100AFF397
:1007D0000080C5E045F0400023464FF00002606015
:1007E000A80736D43EE0E8077FF447AF2068011D34
:1007F00021600068290501D506701BE7290701D58E
:10080000068017E7A90703D5F117C0E9006111E7D2
:1008100006600FE745F0400023464FF00802606095
:10082000A80716D41EE040F60E0125EA010060601C
:1008300016E045F0400023464FF00A026060A8072A
:1008400007D40FE045F040006060A80708D52346B4
:1008500010220D996FF00100AFF3008080E007E0F7
:10086000102223460D996FF00100FFF7B9FD77E0E4
:100870004FF0000963284F46C8464B46CB4602D08E
:100880005B2806D038E0E80601D40120A0600127EB
:1008900032E06269D4F80CB00B98012190475E28D1
:1008A00007D14FF0010949466269D4F80CB00B98A2
:1008B0009047216939B900210A4603AB43F821204A
:1008C000491C0829FADBD8B3216949B308F10108AA
:1008D00062690B98012190475D28F4D1B9F1000FAE
:1008E00009D0002003A951F82020D24341F820204C
:1008F000401C0828F7DB03AB2069002820794FEA69
:1009000040701ED05B462246CDF80080CDE90197AD
:100910000D9900286FF0010020DAAFF300801FE08E
:10092000C11703AA00EBD1614B1121F01F0102EBAB
:100930008302411A13680120884003431360C7E70C
:1009400019E00D99224600286FF00100009702DAA5
:10095000AFF3008004E0AFF3008001E0AFF300806C
:1009600000280ADA401C06D10C9820B14FF0FF3065
:100970000FB0BDE8F08F5046FAE7E90701D10AF160
:10098000010A064400200C9054E60000CCCCCC0CAC
:10099000754600F035F8AE4605006946534620F02E
:1009A0000700854618B020B5FFF772FCBDE820406F
:1009B0004FF000064FF000074FF000084FF0000B1B
:1009C00021F00701AC46ACE8C009ACE8C009ACE8CE
:1009D000C009ACE8C0098D467047000010B500F0B2
:1009E00013F8001D10BD00BF1519000010B5044616
:1009F000AFF300802046BDE81040FFF735BC000093
:100A000000487047FC000020004870471C0100208F
:100A100001491820ABBEFEE7260002004FF0013C62
:100A200050F8042B51F8043B9A4221D1A2EB0C035D
:100A3000934313EACC1317D150F8042B51F8043B1D
:100A40009A4215D1A2EB0C03934313EACC130BD1BA
:100A500050F8042B51F8043B9A4209D1A2EB0C0345
:100A6000934313EACC13DBD04FF00000704700BF74
:100A7000D01A01BAB1FA81F101F0180122FA01F09D
:100A8000CB40C1F12001DBB2C0B2C01A2CFA01F395
:100A9000D11A914311EAC311E6D170477047FEE7BE
:100AA000014800F0F3B800004400002070474FF404
:100AB000005000F069BB90F82020012A07D0022ADC
:100AC00005D0416A41F480214162012070470068ED
:100AD00042690A43426100207047F0B590F8205007
:100AE0000468A468012D05D0022D03D0416A41F4A9
:100AF000802153E014F0406F01D1E5004BD5C4F3E1
:100B00000164022C03D9416A41F4000146E0012549
:100B1000A5401D608D684FF4C0739DB1CE6835430C
:100B20004E6845EAC605066803EB0417F5514FF415
:100B3000C275076805EB04150E697E51097D012910
:100B400005D009E00E88CD6845EA4655EBE7016817
:100B50004E5946F480764E511179D2F805504FF433
:100B6000C67641EA0525016806EB04168D51117819
:100B7000D2F801204FF4C47541EA0221026805EB66
:100B800004155151006803EB0411425842F0010270
:100B900042500020F0BD416A41F400114162012041
:100BA000F0BD704730B590F82040012C05D0022CE4
:100BB00003D0416A41F480215DE00468002955D0EA
:100BC0002469A40754D04FF4D874056804EB0114C9
:100BD0002D5915F00405956005682D594ED0ED0886
:100BE000556005682C5904F00204D4604FF4DA749F
:100BF000056804EB01142D5905F00F051561056812
:100C00002D59C5F30725956105682C59240C5461AD
:100C10004FF4DC72046802EB0112A4581C700468E3
:100C2000A458240A5C700468A458240C9C700468BE
:100C3000A258120EDA704FF4DE72046802EB011251
:100C4000A4581C710468A458240A5C710468A45850
:100C5000240C9C710468A258120EDA71006881B1EC
:100C6000016941F020010161002030BDE468A8E77E
:100C7000416A41F400114162012030BD6D0D1560E3
:100C8000AFE7C16841F02001C160EDE72DE9F05FF9
:100C90000546006800244669D0F804908768D0F8BB
:100CA0000CB0D0F810A0D0F81880F10748D0F907A0
:100CB00014D001218160B80703D5284600F003FA5B
:100CC0000CE0780702D54FF4006407E0380702D53E
:100CD0004FF4805402E0284600F0F4F9F80516D5E8
:100CE00029684FF480708860B80503D5284600F065
:100CF000ECF90CE0780502D544F4005407E038051F
:100D000002D544F4804402E0284600F0DDF9F803FF
:100D100016D529684FF480308860B80303D528467B
:100D200000F0D5F90CE0780302D544F4004407E064
:100D3000380302D544F4803402E0284600F0C6F9B6
:100D4000300707D55FEACB6004D52968102044F44A
:100D50000074C86070074FF0080707D55FEA0B7092
:100D600004D52868C760284600F05AF9B00706D5B0
:100D70002868C068800702D0284600F053F9700642
:100D800007D55FEACA6004D52968102044F480645E
:100D90000861B00607D55FEA0A7004D528680761C4
:100DA000284600F05FF9F00606D52868006980073C
:100DB00002D0284600F057F9B00308D55FEAC960B1
:100DC00005D5296810204860284600F04DF9F00349
:100DD00007D55FEA097004D528684760284600F007
:100DE00077F9300446D55FEA497040D5F00504D55F
:100DF0005FEAC87001D044F00104B00504D55FEA91
:100E0000887001D544F00204700504D55FEA48708B
:100E100001D544F00404300529D518F0700F26D010
:100E200008F07000402815D006DC102809D02028D2
:100E30000AD0302816D10AE050280ED0602811D1EF
:100E40000EE044F008040DE044F010040AE044F021
:100E5000200407E044F0400404E044F0800401E092
:100E600044F480742868816921F0700181612968E7
:100E700004204860002C05D0686A20436862284638
:100E8000FFF78FFEBDE8F09F70B5040003D094F823
:100E9000200010B104E0012070BD204600F082F86F
:100EA0002068016821F00201016000F06DFA05463A
:100EB000052604E000F068FA401B0A2811D82068D3
:100EC00040688007F6D42068016841F001010160A4
:100ED00000F05AFA05460BE000F056FA401B0A28CB
:100EE00006D9606A40F40030606284F82060D2E77E
:100EF00020684068C007EFD0207E01282068016884
:100F00003DD021F080010160607E012820680168E9
:100F100038D021F040010160A07E012820680168DE
:100F200033D021F020010160E07E012820680168B3
:100F30002ED041F010010160207F01282068016857
:100F400029D021F008010160607F01282068016834
:100F500024D021F004010160D4E902010843D4E95E
:100F60000412114308436168491E08432168C8619F
:100F700000206062012084F82000002070BD41F054
:100F80008001C0E741F04001C5E741F02001CAE718
:100F900021F01001CFE741F00801D4E741F004014E
:100FA000D9E7000010B586B0044614216846FFF763
:100FB000BDFA18492068884229D1174800210268E3
:100FC00042F000720260006800F000700590124864
:100FD0001038026842F001020260006800F001006F
:100FE00005904FF4C05000900220CDE9010103208C
:100FF0000390092004906946084800F0D1F80022C7
:101000001146142000F02EFA142000F01DFA06B04C
:1010100010BD000000640040403802400000024063
:101020007047000010B50D4B0D4A0021FFF7BAFDC7
:101030000B480A4A012100682C3A012807D00228EF
:1010400007D0032807D0042800D1D16110BD116159
:1010500010BD516110BD916110BD00002C00002039
:10106000C8000020704770477047000070B5044604
:1010700090F82000012804D0606A40F400206062EB
:1010800018E0022084F820002068016821F00101A6
:10109000016000F079F905460EE000BF00F074F938
:1010A000401B0A2808D9606A40F4003060620520BD
:1010B00084F82000012070BD20684068C007EDD191
:1010C000606270BD704770477047704770477047E7
:1010D00070472DE9F0410446876D00F055F906464A
:1010E00094F835000025022806D08020606584F839
:1010F00034500120BDE8F0812068016821F016011C
:1011000001602068416921F080014161206C08B9CB
:10111000A06C20B12068016821F0080101602068FE
:10112000016821F0010101600BE000F02DF9801B46
:10113000052806D92020606504F8345F032060701C
:10114000D8E720680068C007EFD194F85C103F2012
:101150008840B86004F8345F012060700020C9E75F
:1011600090F83510022903D0802141650120704795
:10117000052180F835100068016821F00101016047
:101180000020704770470000044910B50A68024209
:1011900002D00860FFF7F6FF10BD0000143C0140CC
:1011A0002DE9F84FDFF8ACA1002201240AF1040B6D
:1011B00003254FF00F090BF1040E00BF0B6804FA72
:1011C00002F63340B34272D10F7907F00307012FC3
:1011D00001D0022F16D187684FEA420805FA08FCB1
:1011E00027EA0C07D1F80CC00CFA08FC4CEA070CF3
:1011F000C0F808C04768B7430E79C6F3001696409A
:101200003E4346600E79F643B6070AD0C6684FEAF9
:10121000420C05FA0CF7BE438F6807FA0CF7374308
:10122000C7600E7906F00306022E10D1D60800EB37
:101230008608D8F8206057074FEAD76C09FA0CF7F0
:10124000BE430F6907FA0CF73743C8F820700668E9
:101250004FEA420C05FA0CF7BE430F7907F003077B
:1012600007FA0CF7374307604E68F6006BD53A4E25
:10127000376847F480473760366822F0030706F482
:1012800080460096354E07EB060CDCF80868970799
:101290004FEA177809FA08F7BE43314FB84201D137
:1012A00000271FE02F4FB84202D101271AE04AE081
:1012B0002D4FB84201D1022714E02C4FB84201D182
:1012C00003270FE02A4FB84201D104270AE0294F33
:1012D000B84201D1052705E0274FB84201D10627C2
:1012E00000E0072707FA08F73743CCF80878DAF860
:1012F00000605746D1F804C09E435FEACC3C00D55D
:101300001E433E60DBF800605F46D1F804C09E4398
:101310005FEA8C3C00D51E433E60DEF800607746F5
:10132000D1F804C09E435FEACC2C00D51E433E603A
:10133000084F0C373E68D1F804C09E435FEA8C2CFE
:1013400000D51E433E60521C102AFFF437AFBDE8A3
:10135000F88F0000003C014044380240003001405A
:10136000000002400004024000080240000C02405D
:101370000010024000140240001802400AB18161CE
:1013800070470904FBE700000148806870470000CF
:10139000340000200248816802781144816070475F
:1013A000340000200B4810B5016841F40071016061
:1013B000016841F480610160016841F4807101605D
:1013C000032000F06FF8002000F006F800F024F889
:1013D000002010BD003C024070B50D4D04464FF496
:1013E0007A712878B1FBF0F00A490968B1FBF0F096
:1013F00000F072FB48B9102C07D200222146501E83
:1014000000F030F800206C6070BD012070BD00005D
:1014100034000020400000200A4808B5016841F46B
:1014200080410160006800F4804000900548001F82
:10143000016841F080510160006800F08050009028
:1014400008BD000044380240002809DB00F01F02FC
:10145000012191404009800000F1E020C0F8001116
:1014600070470000F0B40E4B1B680C46C3F3022318
:10147000C3F10705042D00D90425191D072901D240
:10148000002300E0DB1E012606FA05F1491E21407B
:1014900099409E40761E16403143F0BC00F0EDBEF0
:1014A0000CED00E0064900F0070208684FF6FF0364
:1014B000184040EA0220034A1043086070470000C9
:1014C0000CED00E00000FA052DE9F843174801682B
:1014D00041F0805101600068154F00F080500126F6
:1014E00000903E64FFF750FF05464FF47A78114CA8
:1014F00005E000BFFFF748FF401B40450DD860687E
:10150000C003F7D57E64FFF73FFF0546464607E078
:10151000FFF73AFF401BB04202D90320BDE8F88331
:1015200060688003F4D50020F8E7000040380240EE
:1015300000000E42007000402DE9F0470E46050005
:1015400065D0DFF81481D8F80000F7B200F00F0082
:10155000B04207D288F80070D8F8000000F00F0001
:10156000B04254D128683D4C810712D5400703D5BD
:10157000206840F4E05020602878000703D52068F8
:1015800040F4604020602068A96820F0F000084323
:1015900020602878C0072DD03049686808390128B4
:1015A00012D0022813D0032811D009688907002916
:1015B0002DDA216821F0030101432160FFF7E4FEE9
:1015C000814641F2883A0EE009688903EFE709682D
:1015D0008901ECE7FFF7D8FEA0EB0901514502D9DC
:1015E0000320BDE8F0872068696800F00C00B0EBCC
:1015F000810FEFD1D8F80010404601F00F01B14241
:1016000007D90770006800F00F00B04201D0012038
:10161000E7E72878400705D52068E96820F4E0501E
:10162000084320602878000706D52068296920F43F
:10163000604040EAC100206000F038F82168084AA4
:10164000C1F30311515CC8400649086006480068B0
:10165000FFF7C2FE0020C4E7003C02400838024009
:1016600032230008400000203800002004480549CB
:1016700000680968044AC1F38221515CC840704780
:101680004000002008380240422300080448054971
:1016900000680968044AC1F34231515CC840704790
:1016A000400000200838024042230008224810B5BC
:1016B000006810F00C02214815D04110042A11D006
:1016C0001D4C241F082A0FD00C2A0CD12268236835
:1016D00002F03F025B0221D52068C0F38810A0FB16
:1016E000010120E0084610BD2268236802F03F0295
:1016F0005B0205D52068C0F38810A0FB010104E05F
:101700002168C1F38811A1FB00010023FEF7D2FD7F
:101710002168C1F30141491C49000AE02168C1F375
:101720008811A1FB00010023FEF7C4FD2168C1F36D
:101730000271B0FBF1F010BD083802400024F40043
:101740002DE9F84F04007DD0DFF878B32078ABF1B5
:101750000407C007A7F1040550D0DBF80010584675
:10176000C1F3810101290FD00168C1F38101022970
:1017700002D13968490207D40068C0F38100032808
:1017800009D13868400206D52868800336D56068DC
:101790000028D8D032E06068B0F5803F10D0B0F5B6
:1017A000A02F286810D020F480302860286820F40A
:1017B000802028606068A0B1FFF7E6FD06460CE0D7
:1017C000286840F48030F4E740F480202860F7E790
:1017D000FFF7DAFD801B642876D828688003F7D5E8
:1017E0000CE0FFF7D1FD064605E000BFFFF7CCFD9A
:1017F000801B6428F0D828688003F7D42078DFF8AD
:10180000C89280074FF0000A44D5DBF80010584614
:1018100011F00C0F0FD00168C1F38101022902D130
:101820003968490207D50068C0F3810003280AD14E
:101830003868400207D42868800715D5E068012879
:1018400000D111E03AE1E068B0B10120C9F8000030
:10185000FFF79AFD064604E0FFF796FD801B02287D
:10186000BAD828688007F7D52868216920F0F800E1
:1018700040EAC10028600DE0C9F800A0FFF784FD30
:10188000064604E0FFF780FD801B02281CD828686C
:101890008007F7D42078000727D5DFF828828B4807
:1018A000616908F16C0881B101210160FFF76CFDED
:1018B000064604E0FFF768FD801B022804D8D8F82C
:1018C00000008007F6D510E089E0C0F800A0FFF71F
:1018D0005BFD064605E000BFFFF756FD801B0228B2
:1018E0007DD8D8F800008007F6D42078400769D565
:1018F00074484FF0000838300068C0000BD47148BD
:101900003830016841F08051016000684FF00108F3
:1019100000F0805000906E4E3068C00511D43068E1
:1019200040F480703060FFF72FFD009006E000BFAC
:10193000FFF72AFD0099401A022850D83068C005E8
:10194000F6D5604EA068683601280FD005283068AB
:1019500010D020F001003060306820F004003060CA
:10196000A068B8B1FFF710FD00900FE0306840F0BC
:101970000100F4E740F004003060F7E7FFF704FDF2
:101980000099411A41F28830814264D8306880075A
:10199000F4D50EE0FFF7F8FC009007E0FFF7F4FC49
:1019A0000099411A41F28830814254D8306880074A
:1019B000F4D4B8F1000F05D042483830016821F066
:1019C00080510160A069A8B3DBF80010C1F3810168
:1019D000022947D00228C9F860A005D000E03AE00B
:1019E000FFF7D2FC044639E0FFF7CEFC064604E0E0
:1019F000FFF7CAFC801B02282DD828688001F7D485
:101A0000F4E907010843E168324A490802EB014161
:101A1000A26841EA82110843217C40EA0160217DED
:101A200040EA017038600120C9F86000FFF7ACFCA3
:101A3000044606E044E000BFFFF7A6FC001B0228B6
:101A400009D828688001F7D53AE000BFFFF79CFC71
:101A5000001B022802D90320BDE8F88F2868800106
:101A6000F4D42DE00128F7D03868E26900F4800151
:101A7000914223D1226A00F03F0191421ED147F6E4
:101A8000C071626A0140B1EB821F17D1A26A4FF0A8
:101A9000FF3300F4403103EB5202B1EB024F0DD1A2
:101AA00094F82C2000F07061B1EB026F06D194F82D
:101AB000301000F0E040B0EB017F01D00120CBE717
:101AC0000020C9E70838024000004742800E474224
:101AD000007000400000FFFF10B5401EB0F1807F95
:101AE00001D3012010BD4FF0E02460610F21601789
:101AF00000F0C3FB0020A06107202061002010BD82
:101B000070477047F8B5026804461068D168536999
:101B100010F00F0F4FF0000553D003F0010601F451
:101B2000907737435FD0C20705D0CA0503D5226C32
:101B300042F001022264420705D5DA0703D0226C85
:101B400042F002022264820705D5DA0703D0226C34
:101B500042F004022264020707D501F0200232435A
:101B600003D0226C42F008022264226C002A34D096
:101B7000800604D5880602D5204600F07DFA20684C
:101B80004069216CC0F38010090700D430B32046AF
:101B900000F05AFA2068416949061BD5416921F0D5
:101BA00040014161A06BA8B159490165A06BFFF7E5
:101BB000D7FA002811D0A06B016D01B0BDE8F0404C
:101BC000084783060FD58B060DD52046BDE8F840A3
:101BD00000F052BA2046FFF794FFF8BD2046FFF709
:101BE00090FF2564F8BD266B2023012E53D1C60635
:101BF00051D5CE064FD51068506800905069400608
:101C00002BD5A16B086840680004000CEAD0A68DB3
:101C10008642E7D9E085C869B0F5807F18D0D068E2
:101C200020F48070D0602068416921F00101416199
:101C30002068416921F04001416184F83E3025630C
:101C40002068C16821F01001C160A06BFFF741FA64
:101C5000A08DE18D401A81B219E0A08DE18D401A6E
:101C600081B2E08D0028BDD00029BBD0D06820F41F
:101C70009070D0602068426922F00102426184F8CD
:101C80003E3025632068C26822F01002C260204600
:101C9000FFF736FFF8BD05062BD50D0629D594F8BC
:101CA0003D002128F6D1A068B0F5805F01D1206900
:101CB000B0B1206A411C2162216800784860E08C44
:101CC000401E0004000CE084E4D12068C16821F0CB
:101CD0008001C1602068C16841F04001C160F8BD69
:101CE000206A0088C0F308005060206A801C2062CF
:101CF000E5E74006F3D54806F1D5D168204621F046
:101D00004001D16084F83D3000F0C8F8F8BD000013
:101D10003920000870B5040004D094F83D00002577
:101D200010B106E0012070BD84F83C50204600F060
:101D300023F8242084F83D002068C16821F4005174
:101D4000C160204600F0F0F92068016921F490415B
:101D500001612068416921F02A0141612068C16860
:101D600041F40051C1602564202084F83D0084F8CE
:101D70003E00002070BD000010B586B0044614215E
:101D80006846FEF7D3FB17492068884228D11648D9
:101D90000021026842F400320260006800F4003062
:101DA000059011481038026842F001020260006894
:101DB00000F0010005900C2000900220CDE9010107
:101DC000032003900720049069460848FFF7E8F9CC
:101DD000002211462620FFF745FB2620FFF734FBA3
:101DE00006B010BD004400404038024000000240F0
:101DF00090F83E30202B0ED159B152B190F83C30C2
:101E0000012B08D0012380F83C300023036300F04D
:101E100011BA012070470220704700001CB5194913
:101E20001822A1F17800FFF7E3FF1749081F031FED
:101E3000CDE900011A1F15A11248FEF7B3FA0428D4
:101E40001FD1104804213438016100218160C16034
:101E5000022101600C480C38026800F124010A706C
:101E600042684A7082688A70C068C8700B1F0A4650
:101E7000044902B03439BDE81040A1F16C00FEF70E
:101E80002CBE1CBDE40000200C0000202564612550
:101E900064622564632564640000000000BF70472D
:101EA000FEE700000E4810B50C49016012214160A8
:101EB00000214FF480328160C0E9031212014261B7
:101EC000017641768176C17601774177FEF7DCFFB6
:101ED000002801D072B6FEE710BD0000006400408B
:101EE0004400002030B587B014216846FEF71EFB81
:101EF0001E480024016841F004010160016801F0FE
:101F000004010591016841F080010160016801F060
:101F100080010591016841F0010101600068144DE4
:101F200000F001000590002220212846FFF726FA44
:101F30004FF4005000900F48CDE9010469460E4867
:101F4000FFF72EF9202000900120CDE90104694619
:101F500028460394FFF724F9002211462820FFF7B2
:101F600081FA2820FFF770FA07B030BD3038024000
:101F7000000002400000111000080240FEE7FEE7EA
:101F800070477047FFF706BA30B593B03421684602
:101F9000FEF7CCFA14210DA8FEF7C8FA2048002558
:101FA000016841F080510160006800F0805012909B
:101FB0001C48016841F4404101600068022400F4BB
:101FC0004040129001200090000401908001CDE972
:101FD000064004200890B420CDE909040B9468461B
:101FE0000C94FFF7ADFB08B172B6FEE7FFF76CFA91
:101FF00008B172B6FEE70DA90F2081E831004FF459
:10200000A05010904FF48050119005210DA8FFF7BB
:1020100093FA002801D072B6FEE713B030BD00007D
:1020200040380240007000400248016841F47001ED
:102030000160704788ED00E010B5806B0021C1851C
:10204000C184FFF75EFD10BD0168CA6822F490727A
:10205000CA6001684A6922F001024A61016B0129E4
:1020600004D10168CA6822F01002CA60202180F8F9
:102070003E1000210163704710B5044690F83E0001
:10208000222801D0022010BDA1684FF48052914255
:1020900001D1206920B1A06A91421BD049B10AE068
:1020A0002168A06A4968C1F308010180A06A801C08
:1020B00008E0216971B12168496801F07F01017070
:1020C000A06A401CA062E08D401E0004000CE08568
:1020D00003D01CE021684968F1E72068C16821F05D
:1020E0002001C1602068C16821F48071C16020684E
:1020F000416921F001014161202084F83E00206BFC
:10210000012806D02046FFF789FE0020206300202A
:1021100010BD2068C16821F01001C160A18D20466A
:10212000FFF7EEFCF1E7000070B5044600680169B6
:10213000E26821F44051114301612169A068E2691C
:1021400008436169114308432168CA6849F20C6376
:102150009A430243CA6020684169A26921F4407130
:102160001143416131492068884202D03049884298
:1021700002D1FFF78BFA01E0FFF778FAE26900235A
:10218000192164253226B2F5004F626828D0A0FBE1
:102190000101930F9200FEF78DF80146B0FBF5F0B8
:1021A0006FF01802504301EB800006EB0010B0FB0B
:1021B000F5F000F0F002B1FBF5F002EB0012B1FB1C
:1021C000F5F06FF01803584301EB800006EB0010A8
:1021D000B0FBF5F000F00F0021681044886070BD7E
:1021E000A0FB010192185B41FEF764F80146B0FBC9
:1021F000F5F00201B1FBF5F06FF01803584301EB65
:10220000800006EBC000B0FBF5F000F0F80002EB38
:102210004002B1FBF5F0584301EB800006EBC00033
:10222000B0FBF5F000F00700D6E700000010014019
:102230000014014081628285C2850021016422224E
:1022400080F83E2080F83C100168CA6842F4807231
:10225000CA6001684A6942F001024A610068C168C7
:1022600041F02001C1600020704700000148FFF7E5
:1022700049BC00006C000020FEE70907090E002899
:1022800004DB00F1E02080F80014704700F00F003C
:1022900000F1E02080F8141D70470000FFF782F87D
:1022A000FFF772FEFFF71EFEFFF7FCFD1248114913
:1022B0000C2201604FF4E131416000218160C16076
:1022C000C0E904128161C161FFF724FD08B172B653
:1022D000FEE70949182278310748FFF789FD0648CB
:1022E0002838FEF7C3FE044802212838FEF7E3FB36
:1022F000FEE70000004400406C00002010B50029FB
:102300000AD00878002807D005487844FEF786FBF5
:10231000002801D0002010BD0248784410BD000004
:10232000620000005A0000004FF04070E1EE100A19
:1023300070470000000000000000010203040607CF
:102340000809000000000102030400007C240008CA
:10235000000000204400000000020008C024000823
:10236000440000201C0700001C02000810010000AF
:1023700043000000F8FFFFFF004040404040404065
:102380004040414141414140404040404040404048
:1023900040404040404040404005020202020202EC
:1023A000020202020202020202202020202020203B
:1023B000202020020202020202029090909090904F
:1023C000101010101010101010101010101010100D
:1023D0001010101002020202020288888888888881
:1023E000080808080808080808080808080808086D
:1023F0000808080802020202400000000000000075
:1024000000000000000000000000000000000000CC
:1024100000000000000000000000000000000000BC
:1024200000000000000000000000000000000000AC
:10243000000000000000000000000000000000009C
:10244000000000000000000000000000000000008C
:10245000000000000000000000000000000000007C
:10246000000000000000000000000000000000006C
:10247000000000000000000000000000000000005C
:10248000000000000000000000000000000000004C
:10249000000000000000000000000000000000003C
:1024A000000000000000000000000000000000002C
:1024B0000100000010000000000000000024F400F3
:04000005080001C529
:00000001FF
